:100000000C9489020C94A6020C94A6020C94041F72
:100010000C94A6020C94A6020C94A6020C94A602C0
:100020000C94A6020C94A6020C942C240C9400258B
:100030000C94811D0C94A6020C94A6020C94A602AA
:100040000C94A6020C94A6020C94A6020C94A60290
:100050000C94A6020C94241E0C94A6020C94A602E6
:100060000C94A6020C94A6020C94A6020C94A60270
:100070000C94A6020C94A6020C94A6020C94A60260
:100080000C94A6020C94A6020C94A6020C94A60250
:100090000C94A6020C94A6020C94A6020C94A60240
:1000A0000C94A6020C94A6020C94A60214001A004A
:1000B00008001500170004221645074109430A00ED
:1000C0001D001B2106241900050062002A00000003
:1000D000000000001C0018000C00120013000B00B0
:1000E0000D440E420F4633221100100036243721F2
:1000F00038002C47590000000000000001000100FA
:100100000100010001000100D2000000D100010047
:1001100001000100010001000100010001000000D8
:10012000000000000100D100D900D2000100010050
:10013000CF00CE00CD00D0000100DB00DA00DC00F3
:1001400001000100010000000000000001000100AA
:100150004B00010001005000520051004F0001000F
:1001600001004A004E004D000100010001000000A6
:100170000000000001000100010001000100010079
:10018000E3000000E201E1050100010001000100BF
:10019000010001000100000000000000010001005A
:1001A00001000100010023022502240200000100D9
:1001B000010001000100010001004478010000007D
:1001C0000000000001002D02310234000100200275
:1001D000350238003402210201002D0031003500C3
:1001E000010001004378000000000000010033021C
:1001F0003602370233002F023002260227021F0286
:1002000001001E022F0030000100AA0001000000C2
:1002100000000000010001000100010001000100D8
:1002200000002E002E022202010001000100010048
:1002300001000100A9000000000000000100010011
:1002400001000100010001000000E20101000100C5
:100250000100010001000100010001000100000097
:100260000000000001004000410042004300010086
:100270003D003E003F00440001003A003B003C00CE
:1002800045000100010000000000000054002400AF
:1002900025002600570027001E001F0020005600E2
:1002A000550021002200230067000100010000002A
:1002B0000000000001000100010001000100010038
:1002C0000100010000000100010001000100010027
:1002D0000100010001000000000000000100010019
:1002E0003302290001000100220238002800010029
:1002F0000100010001001E02010001002B000000AE
:100300000000000001000100010001004C0041520A
:10031000E300010001000100405201003634373192
:10032000007C000001000000000000000000000050
:10033000000000002A2B2800000000000000000040
:100340000000000000000029000000002C1E3420E6
:10035000212224342627252E362D3738271E1F200C
:100360002122232425263333362E37381F04050651
:100370000708090A0B0C0D0E0F1011121314151695
:100380001718191A1B1C1D2F3130232D3504050693
:100390000708090A0B0C0D0E0F1011121314151675
:1003A0001718191A1B1C1D2F3130354C0000000086
:1003B000000000000000000000000000000000003D
:1003C000000000000000000000000000000000002D
:1003D0007E0F00D4FFFFFFC7000000781A0346001D
:1003E00065007200720069007300200073007700DE
:1003F00065006500700000000803440050004200E2
:1004000000000403090409023B00020100A0FA09EC
:10041000040000010301010009211101000122442F
:100420000007058103080001090401000103000021
:1004300000092111010001227B0007058203200031
:10044000011201000200000008ABC23939010001AD
:1004500002000105010902A10185020901A10005AF
:100460000919012908150025019508750181020562
:1004700001093009311581257F950275088106092A
:10048000381581257F950175088106050C0A38020B
:100490001581257F950175088106C0C00501098079
:1004A000A101850319012AB700150126B70095019E
:1004B00075108100C0050C0901A101850419012AEC
:1004C000A002150126A002950175108100C005014A
:1004D0000906A101050719E029E71500250195087E
:1004E000750181029501750881010507190029FF31
:1004F000150026FF009506750881000508190129D9
:100500000515002501950575019102950175039169
:1005100001C011241FBECFEFDAE0DEBFCDBF11E076
:10052000A0E0B1E0EEE9FFE402C005900D92AE3C20
:10053000B107D9F722E0AEECB1E001C01D92A63CB4
:10054000B207E1F70E9401150C9486270C94000075
:100550008830B8F46830A8F4453098F450E095E05D
:10056000699F400D511D1124FA0198E2899FE00D09
:10057000F11D1124EE0FFF1FE455FF4F859194915B
:10058000089581E090E008950E94A80208959C01DA
:100590003A9521153F4150F5FC01EE27F170BC0161
:1005A00066277270AC01442754709C012227387072
:1005B00094FF0EC080E1EF2B09F480E0672B09F077
:1005C0008062452B09F08064232B89F080680895B0
:1005D00081E0EF2B09F480E0672B09F08260452B66
:1005E00009F08460232B19F08860089580E0089555
:1005F000CF93DF93EB010E94C702FE010995DF91C3
:10060000CF910895CF93DF93EC01805E9109089715
:1006100020F065EB77E0209711F468E775E0CE01F4
:100620000E94F8028C2F0E94DB04DF91CF91089585
:10063000CF93DF93EC010E942405CE01805E9109E7
:10064000089720F06CEB77E0209711F46FE775E0E6
:10065000CE010E94F802DF91CF9108950F931F936E
:10066000CF93DF938C01EB010E940203209741F4AA
:10067000C8010E941803DF91CF911F910F91089537
:100680008FE99FE00197F1F700C000002197EECFBE
:1006900070E060E08933910511F460E570E00E943C
:1006A0002E03089581E008950E945203089581E089
:1006B00008950E94520308950E94590308950895D1
:1006C0000E945F030895A6E0B0E0E9E6F3E00C9431
:1006D000E22649835A839E833091D50189819A818C
:1006E00031111AC03E81332399F0222389F00E94F0
:1006F0002809182F682F89819A810E94040969812D
:100700007A81812F0E940A102696E3E00C94FE263F
:100710000E941609182FF3CF0E94280969817A8157
:10072000F1CFFC01262F4081518162817381848148
:1007300095810E9463030895CF93DF93EC0161E0FC
:100740000E949103BE010E945403DF91CF9108954E
:10075000CF93DF93EC0160E00E949103BE010E9401
:100760006003DF91CF91089521E030E0A90102C03C
:10077000440F551F8A95E2F7CA010E942608089582
:10078000CF93C82F81E090E00C2E02C0880F991FF4
:100790000A94E2F70E94670D8C2F0E94B403CF9158
:1007A000089581E008950E94D1030895CF93C82F42
:1007B0000E94D9078C2F0E94D3032FEF84E39CE083
:1007C000215080409040E1F700C00000CF91089593
:1007D00081E00E94D6030E94481E089580E00E9496
:1007E000D6030E94591E08950F931F93CF93DF9352
:1007F0008C0161E00E949103EC01B8010E945C034E
:10080000811106C080E0DF91CF911F910F91089573
:10081000B801CE010E9429158823A1F3B801CE01A9
:100820000E94951B882371F3B801CE010E941E1708
:10083000882341F3B801CE010E94F416882311F3F6
:10084000B801CE010E944E118823E1F2F8018581A2
:10085000882361F0C330FCE7DF07E9F058F4C115E5
:10086000ECE7DE07A9F0C130DC47B9F0C8010E940F
:100870005703C9CFCB358CE7D807A9F0CC35ECE7C7
:10088000DE0771F0CA35DC4789F70E94420DEECFD2
:100890000E94E803B7CF0E944A0D0E94EE03B2CF38
:1008A0000E94380DE3CF0E94460DE0CF0E945E1DEE
:1008B0000E94760408950E947A040E94631D0895A0
:1008C00081E008950895CF93DF93D82F0E946004AC
:1008D000C82F882319F08D2F0E9462048C2FDF917E
:1008E000CF91089508950E946304089580E00E94C6
:1008F000730408950E94DE1B0E9473040895CF9331
:100900000E94DE1BC82F8091D0018C1779F0C09314
:10091000D0010E94ED1D6093D1017093D2018093AC
:10092000D3019093D4018C2F0E947304CF9108952A
:10093000ADE0B0E0EEE9F4E00C94E3264887598797
:100940006A877B878C879D8791110E94780C1F8214
:1009500086E0FE013896DE01119601900D928A958F
:10096000E1F78D8181110DC029813A814B815C8134
:100970006D817E818F810E94BF0B2D96E2E00C94E9
:10098000FF26CE0101960E949C038111EDCFF5CF89
:10099000FC012481213021F4808191810E945A0937
:1009A0000895662329F00E947F180E945219089525
:1009B0000E94D918FACFCF93C82F882399F08CEFD3
:1009C0008C0F813A88F48C2F0E946D1C882329F0AB
:1009D0008C2F0E94B01C0E94E70C8C2F0E94A81C38
:1009E0000E94E70CCF91089580E28C0F883048F484
:1009F000C77081E001C0880FCA95EAF70E94580CC1
:100A0000EFCFEBE5EC0FE33040F4F0E0E157FE4FC1
:100A1000808190E00E940E1CE5CFE8E5EC0FEB3101
:100A200050F4F0E0EE0FFF1FE75AFE4F80819181F6
:100A30000E94331CD7CF83E38C0F833198F661E09B
:100A40008C2F0E94D104CECF882381F19CEF980F88
:100A5000913A28F40E94B01C0E94E70C089590E29D
:100A6000980F983050F4877091E001C0990F8A95E3
:100A7000EAF7892F0E945E0CEFCF9BE5980F933029
:100A800028F490E080E00E940E1C089598E5980FED
:100A90009B3128F490E080E00E94331C089593E39A
:100AA000980F933118F460E00E94D10408951F93C9
:100AB000CF93DF93182FEB010E94DB04209739F4CA
:100AC000812F0E942405DF91CF911F9108958FE916
:100AD0009FE00197F1F700C000002197EFCF70E091
:100AE00060E0893311F460E570E00E9457050895D5
:100AF000882321F00E94580C0E94E70C0895882357
:100B000021F00E945E0C0E94E70C0895B0E0A0E086
:100B1000ECE8F5E00C94DC266C01D62FC72FFC0125
:100B20001581068102950F700E944E0CE82E8823D5
:100B3000F9F0E12E1123E1F08C2F807F803461F0F9
:100B400080E28D0F883008F18C2F807E803221F476
:100B5000D230D8F00023C9F080919B0282FF15C0EB
:100B600082E00E940C0D0E944E0C91E0E82EE926D6
:100B7000BC2EB2949FE0B922FBE0FB15B8F1EB2D3F
:100B8000F0E0E857F84D0C94CD26E12CF1CF0C2F76
:100B90000F70C07F11F00295007F112399F00023A0
:100BA00059F080E28D0F883010F0D11107C0802FEE
:100BB0000E94580C0E94E70C8D2F5AC0802F0E9473
:100BC0006B0CF8CF8D2F0E942405002379F080E272
:100BD0008D0F883010F0D11104C0802F0E945E0C60
:100BE00003C0802F0E94710C0E94E70CEB2DE8508F
:100BF000FF0B349720F40E94DE1B0E947304EE204A
:100C000089F00E944A0C80FD0DC0F60115820E94F9
:100C1000440C0E946208C6010E9492070E94440C84
:100C20000E947208CDB7DEB7E9E00C94F8262C2FAD
:100C30002F70F22EC07FC03219F0F29480EFF822AC
:100C4000DD2341F0D130D1F1112309F444C0002358
:100C5000F1F0B2CF80919B0282FD15C0112359F0B3
:100C6000FF2029F08F2D0E94580C0E94E70C80E095
:100C70000E94DB04BBCF80E00E942405FF2009F422
:100C8000B5CF8F2DABCF112369F0011104C08F2D8B
:100C90000E947805ABCF013009F0A8CF8F2D0E94BC
:100CA0008F0CA4CF0111A2CF8F2D0E947F058F2D15
:100CB0000E949B0C8F2D0E947F0C98CF112321F056
:100CC000063008F093CFE3CF053008F08FCF8F2D9B
:100CD0000E947F058BCF0023D1F3D93349F43FEF36
:100CE00087EE93E0315080409040E1F700C0000073
:100CF0008D2F0E9424057ACF8C2F86958695837040
:100D000069F0813009F072CF8D2F9C2F93701111F3
:100D100002C080E090E00E94331C68CF8D2F9C2F92
:100D20009370111102C080E090E00E940E1C5ECF13
:100D3000612F8D2F0E94D10459CF8C2F8370A1F584
:100D4000111154CF4D2F429546954770440F440FD3
:100D50002D2F2F7030E0042E02C0220F331F0A9473
:100D6000E2F790E080E0D4FF09C08FE090E002C09D
:100D7000880F991F4A95E2F780959095C695C6957C
:100D8000C370822B932BC23049F058F4C13019F054
:100D90000E9432082BCF0E94290828CF0E943B08CE
:100DA00025CF0E94260822CF8695112311F08C2F83
:100DB0008170882309F41ACF4D2F429546954770CC
:100DC000440F440F2D2F2F7030E0042E02C0220F4D
:100DD000331F0A94E2F790E080E0D4FF09C08FE06F
:100DE00090E002C0880F991F4A95E2F78095909590
:100DF000C695C695C370822B932BC23049F058F428
:100E0000C13019F00E949D08F1CE0E949408EECEE8
:100E10000E94A608EBCE0E944A08E8CECF701123AC
:100E200029F08C2F0E9462088D2F32CF8D2F0E94C7
:100E30007F058C2F0E947208D9CED23F41F160F419
:100E4000D03FB9F0D13F81F0112309F443C0011123
:100E5000B3CE8C2F8F711FC0D33F01F1D43FA1F7C8
:100E600080919B0282FD24C08C2F8F71112311F37E
:100E700012C0112341F0053008F0B8CE8C2F8F71CD
:100E80000E948408B3CE063008F0B0CEF7CF8C2F86
:100E90008F711111CFCF0E946208A8CE112329F0C3
:100EA0008C2F8F710E945608A1CE0E9451089ECEB1
:100EB000112331F063E08C2F8F710E94EE0C96CEDF
:100EC00081E00E940C0D023008F490CE82E00E9476
:100ED0000C0D8CCE002359F0D93309F009CFEFEF78
:100EE000F7EE23E0E150F0402040E1F7FFCE8C2FF9
:100EF0008F71A0CF0F931F93CF93DF93EC01688185
:100F000079818D810E9465098C010E94AF080E9441
:100F10002508B801CE010E948605DF91CF911F916F
:100F20000F910895CF93DF93EC018C81882399F082
:100F3000CE010E94F403811111C00E944E0C88233F
:100F400051F08D81882339F080919B0282FF03C08C
:100F500082E00E940C0DDF91CF910895CE010E9496
:100F60007A07CE010E94A803F6CF882321F00E94C1
:100F70006B0C0E94E70C0895882321F00E94710CED
:100F80000E94E70C089590E080E00E940E1C90E023
:100F900080E00E94331C0E94780C0E94E70C0E94A3
:100FA0006E190E94521908950E94B81C0E94C3072E
:100FB00008950E94680C0E94D407089592959F702E
:100FC000963091F058F4925F9F70923058F4803FC1
:100FD00019F030F4883E30F481E008959A5FF4CF40
:100FE000843FD1F380E00895883EB0F3813FD1F78C
:100FF000F3CFFC012481222339F0808191810E946A
:101000005A090E94DE07089580E00895A6E0B0E046
:10101000ECE0F8E00C94E3262696E2E00C94FF2640
:10102000A7E0B0E0E6E1F8E00C94E3262796E2E0E2
:101030000C94FF2608950E941A0808950E941B0828
:101040009093ED018093EC01089508950E941E088D
:1010500008952091EC013091ED01822B932B0E9499
:101060001E0808952091EC013091ED018223932315
:101070000E941E0808952091EC013091ED01822715
:1010800093270E941E0808950E941A0808950E943E
:10109000440808950E9447089093EB018093EA0169
:1010A000089590E080E00E944A08089521E030E031
:1010B000A90102C0440F551F8A95E2F7CA010E9498
:1010C0004A08089521E030E002C0220F331F8A95BC
:1010D000E2F78091EA019091EB01822B932B0E9421
:1010E0004A08089521E030E002C0220F331F8A959C
:1010F000E2F7209530958091EA019091EB018223EF
:1011000093230E944A08089521E030E002C0220F94
:10111000331F8A95E2F78091EA019091EB018227D3
:1011200093270E944A0808952091EA013091EB012B
:10113000822B932B0E944A0808952091EA01309156
:10114000EB01822393230E944A0808952091EA012B
:101150003091EB01822793270E944A080895089551
:10116000262F277091E001C0990F2A95EAF723E016
:10117000769567952A95E1F7660F771F660F771FBB
:10118000FA01E60FF71F50E040E0682F70E0819110
:10119000DF0111979B01042E02C0369527950A9412
:1011A000E2F7217021952827292328272C934F5FC8
:1011B0005F4F4430510559F70895A82FA77023E0D9
:1011C000969587952A95E1F7880F991F880F991FA3
:1011D000FB01E80FF91F50E040E080E0219130E092
:1011E0000A2E02C0369527950A94E2F7217033271C
:1011F000042E01C0220F0A94EAF7822B4F5F5F4F43
:101200004430510559F70895262F983070F48530F1
:1012100060F4682F70E085E0989F600D711D1124C7
:1012200046ED51E0822F0E94B0080895292F983092
:1012300068F4853058F490E066ED71E035E0239F66
:10124000800D911D11240E94DD08089580E008950D
:10125000B0E0A0E0EEE2F9E00C94DC267C01009125
:10126000EA011091EB018091EC019091ED01082BC6
:10127000192BCFE0D0E0CC24C394D12CBC2EC601D6
:101280000C2E02C0880F991F0A94E2F78023912345
:10129000892B49F4219790F7B12C8B2DCDB7DEB770
:1012A000E9E00C94F826B7018C2F0E9416100197E4
:1012B00089F3F3CFCF93DF93EC010E942809BE019D
:1012C0000E941610DF91CF9108951F93CF93DF9363
:1012D000EB019091D501992339F0CB010E945A0975
:1012E000DF91CF911F910895882369F0CB010E946F
:1012F0002809182F682FCE010E940409BE01812FF2
:101300000E941610EDCFCB010E941609182FF6CFC0
:101310001F93CF93DF93C091EE0117E08091EF010F
:101320008C1304C0DF91CF911F910895D0E01C9FD2
:10133000F0011D9FF00D1124E051FE4F20813181FD
:10134000428153816481758186810E9410082196B3
:10135000C770E4CF209128023091290240912A02DF
:1013600050912B0260912C0270912D0280912E02DF
:101370000E9410080895CF93DF9380912E02807F02
:1013800009F04DC080912D02882309F448C0E091F6
:10139000EE015091EF01C0912902D0912802609195
:1013A0002A0270912B0247E05E17C9F18E2F90E060
:1013B000E49FF0011124E051FE4F2481222391F19A
:1013C000489FF001499FF00D1124DF01A051BE4F4D
:1013D00011962C9111972C1325C02C912D1322C0FE
:1013E00015962C91159721111DC012962D913C91A7
:1013F000261B370B283C3105A8F480912E028F70F4
:10140000806180932E02EA50FE4F80818F70806150
:10141000808388E292E00E9492070E948809DF910F
:10142000CF910895FC013196E770BECF482F2091EF
:10143000EE019091EF0157E0291302C080E008957A
:1014400030E0529FF001539FF00D1124E051FE4F08
:101450008181681306C08081481303C08581811192
:10146000EECF2F5F3F4F2770E7CFA4E1B0E0EBE373
:10147000FAE00C94D9268C0186E0F801DE011F9673
:1014800001900D928A95E1F7F8018481E58098E258
:10149000A92E92E0B92E90912C0291111FC08823A1
:1014A000D1F0EE20A9F0C8010E94F907F82E882398
:1014B00079F087E0F801D50101900D928A95E1F766
:1014C000C5010E94C8040E94BB090E94AA095FC00E
:1014D000C8010E949207FF24F39459C0C080D180B4
:1014E00082809380F0902D0220912A0230912B026D
:1014F000A401421B530BFF2009F4F9C0483C5105DD
:1015000008F0A7C0882309F442C090912902809175
:101510002E02282F207F09F05CC09D1116C09091EB
:101520002802C91212C0E1104EC08F7080618093F2
:101530002E020E94AA0988E292E00E9492078091FE
:101540002E02F8018683F12C22C0E1103CC06D2DE3
:101550008C2D0E94160A6D2D8C2D0E94160AE82EE5
:101560008111F1CFCF86D88A8F8598890E945A0938
:10157000292F22952F70243078F49F702230A8F004
:101580009923B9F0F8019681907F99F4FE2C8F2D64
:101590006496ECE00C94F5262A5F2F70223068F0F8
:1015A000C8010E949207EF2CF1CF992311F08823F4
:1015B00069F3805E883050F3F3CF803F38F3815F6A
:1015C000833070F7E3CF80912E02816080932E02EA
:1015D000BACF9D1113C090912802C9120FC0E1101B
:1015E0000DC08683C8010E94920787E0F801A8E237
:1015F000B2E001900D928A95E1F767CFC8010E9491
:10160000F907882309F464CFEE2009F461CF8091B3
:101610002E02803288F020912802309129023987E9
:1016200028879B868A8690912C029C871D868E87B0
:10163000CE0108960E94920787E0F801A8E2B2E086
:1016400001900D928A95E1F70E94BB090E94AA09B8
:1016500042CF90912E02292F207FA1F4682D9A8AE3
:10166000898AA6017A899E2D0E94060888E292E066
:101670000E94920787E0F50111928A95E9F70E948E
:10168000AA0961CF882309F482CF809129028D11A4
:1016900010C080912802C8120CC0E1100AC09683C5
:1016A000C8010E94920787E0F50111928A95E9F737
:1016B0006ECFC8010E94F907882309F409CFEE20F4
:1016C00009F406CF80912E02803208F4B5CF209124
:1016D0002802309129023A8329839C828B8290913F
:1016E0002C029D831E828F83CE010196A3CF483C9E
:1016F0005105B8F5882309F4EECEFE2CEE2009F44E
:10170000E7CE809129028D111EC080912802C81257
:101710001AC080912E0280FD0DC0982F907F51F04D
:101720008683903F09F45ECF982F907F905F8F70F3
:10173000892B57CF87E0F801A8E2B2E001900D9223
:101740008A95E1F724CFC8010E94F907811174CF6F
:1017500080912E02816080932E02C8010E94920720
:1017600016CF682D9A8A898AA6017A899E2D0E94B1
:10177000060887E0F50111928A95E9F7A6CEAEE05A
:10178000B0E0E5ECFBE00C94E226288739874A8735
:101790005B876C877D878E87CE0108960E94350A0D
:1017A0008823B1F06C85662341F0288539854A8508
:1017B0005B857D858E850E94100817E08091EE0183
:1017C0009091EF0189133DC02E96E3E00C94FE2624
:1017D00087E0FE013896DE01119601900D928A9500
:1017E000E1F78C85882349F32091EF0130E0C901AE
:1017F0000196877099274091EE014817190699F0D4
:1018000097E0929FD001939FB00D1124A051BE4F3D
:10181000FE01319601900D929A95E1F78093EF01C8
:101820000E948809CACF0E94D9071092EF01109236
:10183000EE0187E0E8E2F2E0DF011D928A95E9F728
:10184000BCCF819FC001112480519E4F0E94350A58
:10185000882309F4B9CFE091EE011E9FF001112415
:10186000E051FE4F20813181428153816481758135
:1018700086810E9410088091EE0190E001968770A9
:1018800099278093EE019ACF8091370286958695AD
:101890008695089580913702877008959091370258
:1018A000977081E009F480E00895809143020895E3
:1018B00090914302892B80934302089580959091E3
:1018C000430298239093430208958093430208951E
:1018D00010924302089590914202892B8093420214
:1018E0000895809590914202982390934202089522
:1018F00010924202089508950E947B0C08959091E1
:101900003802292F282331F08095892380933802CB
:101910000E947C0C089508950E948B0C089590916C
:101920003902292F2823281729F0982B9093390260
:101930000E948C0C089590913902292F282331F0B0
:1019400080958923809339020E948C0C08958091A0
:101950003902882329F01092390280E00E948C0C11
:1019600008950F931F93CF93DF930091000110917F
:101970000101C091430280914202C82B809139023B
:10198000882331F0C82B0E94581C81110E94A70C9B
:10199000F801C083C0910001D091010148E050E0FE
:1019A0006FE272E0CE010E941E27892B59F088E079
:1019B000FE01AFE2B2E001900D928A95E1F7CE010F
:1019C0000E94F51BDF91CF911F910F9108950E9406
:1019D000B10C089508950E94EA0C089590919B021D
:1019E00092FF11C098E0899F90011124622B6093AF
:1019F00037020E9462088091370286958695869507
:101A00000E94EB0C08950E9462080895109237021C
:101A100080E00E94EB0C0895909137028095892315
:101A200080933702282F277069F4891759F0909115
:101A30009B0292FF07C08695869586950E94720844
:101A40000E94060D089590919B0292FB222720F997
:101A5000281769F080FB92F990939B0280919A027B
:101A600090919B020E94720D82E00E940C0D0895DD
:101A700080919B0282FB882780F991E089270E9450
:101A8000230D089581E00E94230D089580E00E94B7
:101A9000230D08956FEF7FEF90E080E00E947027A4
:101AA000089590E080E00E943C2721E0853E9E4F13
:101AB00009F020E0822F089582E090E00E94342710
:101AC000089583E090E00E94342790E00895682F05
:101AD00083E090E00E945227089584E090E00E9405
:101AE0003C270895BC0184E090E00E94702708958F
:101AF000AB01BC018FE090E00E9464270895AB0128
:101B0000BC0183E190E00E946427089560E070E0EA
:101B1000CB010E947F0D089560E070E0CB010E9430
:101B2000780D0E94860D0895A8E0B0E0EAE9FDE096
:101B30000C94E32665EE7EEF90E080E00E94702733
:101B400060E082E090E00E94522781E090E0909374
:101B5000ED018093EC010E94670D60E074E184E088
:101B600090E00E94702760E086E090E00E9452279B
:101B700060E087E090E00E94522740E050E0BA0128
:101B800088E090E00E94642760E083E290E00E9499
:101B9000522760E08CE090E00E94522760E08DE0E8
:101BA00090E00E94522719821A821B821C821D8299
:101BB0001E821F82188648E050E067E170E0CE0187
:101BC00001960E94422740E050E0BA018FE190E088
:101BD0000E9464270E948C0D2896E2E00C94FF2658
:101BE0000E94940D0895682F8EE090E00E94522785
:101BF0000895A6E0B0E0EFEFFDE00C94E1260E942E
:101C0000E11D8C018091440290914502801791075B
:101C100081F019821A820E94E11D682F49815A8140
:101C2000792F80E090E00E94980410934502009381
:101C300044022696E4E00C94FD260E943211609343
:101C40005202709353028093540290935502609312
:101C50004E0270934F028093500290935102089568
:101C6000089508950E94300E089508950E94350E3B
:101C7000089581E008958CE491E10E9416150E9478
:101C8000310E0E94320E08950E940D13089508959A
:101C900008950E94470E0E94480E08950E94510D1B
:101CA000811102C00E94F00D0E945C0D80935602CB
:101CB0000E946D0D90939B0280939A020E94D91608
:101CC0000E94610D0E9426088091EA019091EB012B
:101CD0000E94470808950E94D81D0E940C110E947E
:101CE00013130E9433120E944E0E0E9472040E942F
:101CF00079150E94DC160E9425130E94360E089565
:101D0000A6E0B0E0E6E8FEE00C94DA260E94390E88
:101D100081110CC00E94F90D0E940D130E949019B0
:101D20000E947F042696EBE00C94F6260E94871210
:101D300086E4A82E82E0B82E750110E0F70101912B
:101D40007F01812F0E9468111F5F183009F441C084
:101D50000817A1F38091560281FD0E946E110E9426
:101D6000440EC82E10E099249394812F0E9468118C
:101D7000082FF50181915F01081729F1F12CEE245C
:101D8000E394D02ED8268D2D8E21A9F0CC2099F069
:101D9000F9821A830E94E11D9C838B839D8291E0CE
:101DA000802F8E2109F490E049815A816B817C81DA
:101DB0008D810E949804F394EE0CF5E0FF12E3CFBE
:101DC000F501319700831F5F183079F60E941D0ED0
:101DD000A3CF0813BFCF9ECF1F93CF93DF930E9453
:101DE0001B10EC01C11580E5D807F0F5C11580E4A2
:101DF000D80708F09CC0C03ED10520F5CD3CD105E8
:101E000008F082C0C83AD10578F4C53AD10508F087
:101E100073C0C130D10519F1209709F1C430D10543
:101E2000F0F4D0E0C0E01BC0C33CD105D0F7C85AE5
:101E3000D0E0CC0FDD1FCE56DE4F0990D881C02DEB
:101E4000D4640DC0C11580E2D80708F0D1C0C11517
:101E500081E0D80708F05AC0C83ED10510F7CE017E
:101E6000DF91CF911F910895C03682E5D80718F50C
:101E7000C03482E5D80708F06BC0C03282E5D807CD
:101E800008F05FC0C11582E5D80708F497C02C2F71
:101E90002695269580E2289F900111248C2F83702F
:101EA000C1E0D0E002C0CC0FDD1F8A95E2F7C22B63
:101EB000D32BDD68D4CFC03A82E5D80760F4C038B0
:101EC00082E5D80708F459C0CF71D0E0DC2FCC27C9
:101ED000C46FD06AC4CFC03C82E5D80708F462C0A2
:101EE000C03E82E5D80708F09CCFDC2FCC27CC275A
:101EF000DF71C06FD06AB3CFC55AD0E0C853DE4F90
:101F0000C881D0E0D064ABCFD065A9CF8D2F0E941F
:101F1000BD10182FCE0199270E941B10C12FD0E0B1
:101F2000DC2FCC27CC27DF71C82BD92B98CFCE0143
:101F300099270E941B10CC27DF70C82BD92BD06AA1
:101F40008ECFCF71D0E0DC2FCC27C16FD06A87CF86
:101F50002C2F26952695277080E2289F900111242A
:101F60008C2F8370C1E0D0E002C0CC0FDD1F8A95BA
:101F7000E2F7C22BD32BDC6872CF2C2F2695269547
:101F8000277080E2289F900111248C2F8370C1E07C
:101F9000D0E002C0CC0FDD1F8A95E2F7C22BD32B15
:101FA000DA685DCF8C2F8F710E94BD10C82FD0E0F2
:101FB000DC2FCC27CC27DF71D06251CF8C2F8F71D3
:101FC0000E94BD1055E0D695C7955A95E1F7CF70A0
:101FD000D0E0DC2FCC27282F30E084FF05C044E080
:101FE000220F331F4A95E1F7C22BD32BD06937CF8D
:101FF0008D2F8F710E94BD10182FCE0199270E943E
:102000001B10C12FD0E0DC2FCC27CC27DF71C82BD1
:10201000D92BD2CF462F783030F4653020F4672F9B
:102020000E94C402089590E080E008950E940A1082
:102030000E94EC0E089582389105B9F1B0F4813315
:10204000910509F47DC048F48932910509F46DC009
:102050008A32910509F47BC008958533910509F40E
:102060005FC08933910509F10895833E9105D9F147
:1020700038F4803E910529F1823E910579F1089569
:10208000863E9105D9F1873E910509F43EC0843E14
:10209000910541F520919B0221FF24C080919A0275
:1020A00084FD19C087EE90E0089520919A02237074
:1020B00009F05AC020919B0223FF14C089E290E0EE
:1020C000089520919A0220FD38C030919B0230FF84
:1020D00009C024FF43C090E080E0089520919A0257
:1020E00022FDF7CF089520919A0222FD3AC0309147
:1020F0009B0230FD39C024FFF5CFEDCF20919A022D
:1021000023FFF0CF24FDE7CFCDCF20919A0223FD0E
:102110002EC030919B0231FFEECF84EE90E0089507
:1021200020919A0225FFDECFC9CF20919A0225FD8A
:1021300021C020919B0223FFD5CF89E390E0D2CF2D
:1021400020919A0226FFCECF8AE290E00895209156
:102150009A0226FFC7CF81E390E0089583EE90E0D6
:10216000089582EE90E0089580EE90E0089586EE66
:1021700090E0089585E390E0089590919A0292FF8F
:1021800010C041E0282F2471243009F040E031E0F4
:10219000282F2871283009F030E0431711F02CE087
:1021A000822793FF10C041E0282F2471243109F0C9
:1021B00040E031E0282F2871283109F030E0431742
:1021C00011F02CE0822730919B0230FF10C051E0CB
:1021D000282F2171213009F050E041E0282F28718B
:1021E000283009F040E0541711F029E0822731FF30
:1021F00010C041E0282F2171213109F040E031E089
:10220000282F2871283109F030E0431711F029E018
:10221000822794FD877E089510929C0210929D0261
:1022200010929E0210929F020895CF92DF92EF9239
:10223000FF926B017C010E940D1381110EC00E9460
:10224000ED1DC61AD70AE80AF90AC0929C02D0927C
:102250009D02E0929E02F0929F02FF90EF90DF902D
:10226000CF9008950F931F930E940D13882329F098
:102270000E94ED1D1F910F9108950E94ED1D009188
:102280009C0210919D0220919E0230919F02600F4E
:10229000711F821F931FEECF80E00895CF939C01A2
:1022A000205E3245C1E02032310538F4FB01C581A2
:1022B000C11103C08F710E94C0038C2FCF9108956C
:1022C00008950E946011089508950E946411089570
:1022D000E82FF0E0E755FD4F8081089508950895B7
:1022E0000E946F110895EF92FF921F93CF93DF9397
:1022F00000D000D0CDB7DEB70E940D13182F60912B
:10230000B102882309F447C019821A821B821C82F9
:10231000862F90E09E012F5F3F4F7901B9018755CD
:102320009D4F0E9433138823E9F08091A00290E032
:1023300044E050E0B70187559D4F0E941E2721E0E1
:1023400020935702892BC9F410E00E946511812F58
:102350000F900F900F900F90DF91CF911F91FF90F2
:10236000EF90089580915702882371F384E0F7017C
:1023700011928A95E9F710925702E091A002F0E0DD
:10238000E755FD4F89819A81AB81BC818083918320
:10239000A283B383DACF70E067557D4F8091A002AE
:1023A00090E087559D4F0E94BA130E947011CFCFC5
:1023B0001F93CF93DF9322E031E0C1E0D0E0D90159
:1023C00050E040E08D918F3F91F0E82FE295EF7063
:1023D000F0E011A18F70BE0101C0660F8A95EAF787
:1023E000962F9095912391A382A1862B82A34F5F74
:1023F0005F4F4530510531F72B5F3F4F81E026316C
:102400003807E9F6DF91CF911F910895CF93DF93BD
:10241000AC01A62FB0E085E0689FF0011124EE5FCB
:10242000FE4F70E081E060E091919F3FD1F0C92FB5
:10243000C295CF70D0E028A130E09F7002C03595E2
:1024400027959A95E2F720FD0CC0282F622B7F5F1D
:10245000880F753049F7A40FB51F6C93DF91CF91AA
:10246000089520E0F3CFA4E1B0E0E9E3F2E10C94B9
:10247000E32680911601811126C084E1E5E4F1E0B4
:10248000DE01119601900D928A95E1F7FE013196D9
:10249000A2E0B1E0CE01459620812C9321811196D6
:1024A0002C931197228112962C93129723811396C5
:1024B0002C931397248114962C9314973596159684
:1024C0008E179F0749F78091160194E0811190E0E3
:1024D0009093B10284E0891B8093A0020E94D811DE
:1024E00088E0E9EAF2E0DF01982F1D929A95E9F77A
:1024F000E1EAF2E0DF011D928A95E9F784E00E94AB
:10250000C5120E9461116496E2E00C94FF26A8E0D7
:10251000B0E0EDE8F2E10C94E0268E010F5F1F4F72
:1025200088E0F80111928A95E9F7F12C6F2DC80126
:102530000E940612F394F4E0FF12F8CF48E050E056
:10254000B80181EA92E00E941E2721E0009709F479
:1025500020E0892B41F088E0F801A1EAB2E0019087
:102560000D928A95E1F76091B10270E067557D4F59
:1025700044E081EA92E00E94C612182F0E94731173
:10258000812B2896E5E00C94FC260895B0E0A0E0AD
:10259000ECECF2E10C94DD266C017B01042FC22FE0
:1025A000222379F081E080935A020E94E11D9093EA
:1025B00059028093580280E0CDB7DEB7E8E00C9472
:1025C000F926D0915A02DD23B1F3809158029091FF
:1025D00059020E94F91D059770F310E0A801B60199
:1025E000C7010E941E27892B31F0A801B601C7013F
:1025F0000E942B27CD2F10925A028C2FDDCFCF9324
:102600000E94AC26C82F811102C00E94A7268C2FE1
:10261000CF91089580915E02089580915D020895A2
:102620000E940D1308950E94FF1280935D020E9484
:10263000101380935E020E940A13809316010E9479
:102640000D1381110E94691308950E940D138111C9
:1026500002C00E946C13089581E090915F029A304D
:1026600008F080E008950F931F93CF93DF93EC0160
:102670008B0180915F028A30B8F4B801CE010E94CC
:10268000B713C82F811122C080915F028F3FB9F428
:102690000E94E11D90935C0280935B028C2FDF917E
:1026A000CF911F910F91089580915B0290915C02F0
:1026B0000E94F91D843F914000F7C0E0EFCF8F5F8B
:1026C00080935F028A3020F7C1E0E8CF10925F026A
:1026D000E5CF0E94BE1E08950E94C11E0895B0E07D
:1026E000A0E0E5E7F3E10C94DE267901C82F880F1E
:1026F000DD0B41155105A9F0FE0193E0EE0FFF1F20
:102700009A95E1F7E95EFE4F81819281805A9D4F53
:10271000208130E04217530708F49A01A9010E9472
:102720002B27CE010E94AA1FD82E8823D1F0011595
:102730001105B9F083E0CC0FDD1F8A95E1F7FE01AA
:10274000E95EFE4F438150E00417150708F4A80125
:10275000C95EDE4F6C817D81605A7D4FC7010E944A
:102760002B278D2DCDB7DEB7E7E00C94FA260E941B
:10277000B11408950E94C8140895A4E0B0E0E3ECF9
:10278000F3E10C94E12660917502709176028091DC
:102790007702909178020E94081E11E0643671055C
:1027A0008105910518F10E9432116E5F7F4F8F4FA6
:1027B0009F4F69837A838B839C8310E000E030E035
:1027C00020E044E050E0BE016F5F7F4F82E00E9456
:1027D0006F13182F882351F00E94ED1D609375022E
:1027E000709376028093770290937802812F2496DB
:1027F000E4E00C94FD26B0E0A0E0E1E0F4E10C940C
:10280000DB267C015B016A010E942C1301E010E0D1
:10281000882311F00AE010E0C1E0D0E0B501C70163
:10282000F6010995811104C021960C171D072CF49F
:10283000CDB7DEB7EAE00C94F726CC9F9001CD9F90
:10284000300D300D112490E080E045E34A95F1F71A
:102850000000019682179307C1F7E0CFA5E0B0E032
:10286000E4E3F4E10C94DB265B01E090CB01F09013
:10287000CC0101E010E09E012B5F3F4F50E040E0B3
:1028800070E060E080E00E946F13182F882309F445
:102890004BC067018FEFC81AD80A6091710270911E
:1028A000720280917302909174020E94081E643635
:1028B00071058105910580F104E010E09E012F5F14
:1028C0003F4F50E040E070E060E081E00E946F1315
:1028D000F82E64E070E0C6010E94DD1611E09D81D3
:1028E000981310E01F2159F10E94ED1D60937102B1
:1028F00070937202809373029093740289819A811B
:10290000AB81BC8180936D0290936E02A0936F02A5
:10291000B093700211E013C064E070E0C6010E9441
:10292000DD169D818913C8CFF70181819281A38132
:10293000B48189839A83AB83BC831111DFCF8091EB
:102940006D0290916E02A0916F02B0917002F5013C
:1029500080839183A283B383812F2596EAE00C9430
:10296000F7260F931F93CF93DF93EC018B014EE279
:1029700054E10E94FB13882331F04DEB53E1B80181
:10298000CE010E94FB13DF91CF911F910F9108950B
:102990000F931F93CF93DF93C091CB01D091CC01C4
:1029A000CE01019624E0FB01DC0101900D922A95F5
:1029B000E1F764E070E00E94DD1688836D817E811E
:1029C0008F8198850091690210916A0220916B02B3
:1029D00030916C02601771078207930751F0609382
:1029E000690270936A0280936B0290936C020E945A
:1029F0001511DF91CF911F910F9108950E94800EC4
:102A000008950E947A1D0E9463210E943B0E0E943D
:102A10007D210E946B0E0E948A210E948F210E94BC
:102A2000FE140E94A9210E94490EF7CF9093CF0176
:102A30008093CE010895FB012581222341F097FF69
:102A400006C09F77BC0190E080E00E945F1681E0A5
:102A500008950F931F93CF93DF93EC018B01FB013C
:102A60008581882389F00E94550C8272FE01E05313
:102A7000FC47E830F10540F4EC56F84D0C94CD26B7
:102A8000882369F00E949115B801CE010E941B15A0
:102A9000DF91CF911F910F910895882399F30E94A0
:102AA0009015F2CF80E00E948215EECF81E0FBCF3F
:102AB00082E0F9CF83E0F7CF84E0F5CF85E0F3CF74
:102AC0009091B302923071F48A3050F490E00996FC
:102AD0006AE070E00E94B926875A0E946F05089547
:102AE0008650FBCF0E94261B089508950E947515FD
:102AF00008958CE090E00E9434278093B3020E94F6
:102B000076150895CF93C82F8093B302682F8CE079
:102B100090E00E9452278C2F0E947615CF91089545
:102B2000089508950E94F21B8093B2029091B3021F
:102B3000913029F481FF03C089E30E946F050E9450
:102B4000550C8093B4020E94680C0E94780C80910E
:102B5000B302823021F158F48823C1F08130D1F0E2
:102B60008FE39CE90197F1F700C0000008958430DD
:102B700051F18530A9F78BE191E00E94480385E28D
:102B800090E00E94480388E290E006C082EE0E9436
:102B9000DB04E6CF88E193E00E944803E1CF809117
:102BA000B20280FD03C083E50E946F0582EE0E94A1
:102BB000DB048FE39CE90197F1F700C0000087E593
:102BC0000E946F05CDCF86EE0E946F0588E1F8CF99
:102BD0008091B302823011F148F4882381F0813072
:102BE00091F08091B4020E94650C08958430F9F050
:102BF0008530B9F788E290E00E944803F2CF82EE78
:102C00000E942405EECF8CE20E946F058091B202F3
:102C100081FFE7CF89E30E946F05E3CF82EE0E9438
:102C200024058091B20280FDDCCF83E5F4CF88E2F9
:102C3000F2CF8F929F92AF92BF92EF92FF920F933B
:102C40001F93CF93DF934B015C01D091B3028CE1D2
:102C5000E82EF12C07E010E021E0D501C4010E2C94
:102C600004C0B695A795979587950A94D2F7C82F73
:102C7000CF70222339F0D43051F4CA3040F080E0D4
:102C80000E9460158C2F0E94601520E005C0C111C4
:102C9000F9CF04301105B4F30150110984E0E81AAA
:102CA000F1080F3F1007C9F6DF91CF911F910F91E7
:102CB000FF90EF90BF90AF909F908F900895CF922C
:102CC000DF92EF92FF926B017C01C114D10481E18C
:102CD000E806F104A0F5C114D10481E0E806F1048E
:102CE00020F08091B302823051F10E949215C114FC
:102CF000D10481E0E806F10438F18091B30281113A
:102D000023C081E0E81AF108C701B6012AE09695D0
:102D10008795779567952A95D1F778528F4F9F4F72
:102D20000E94191683E0D822EE24FF24C701B601C1
:102D300074528F4F9F4F0E9419160E94E815FF9002
:102D4000EF90DF90CF900895C701B601F4CF0E94B5
:102D50004A0D0895CF930E940A13C4E08111C0E088
:102D60008C2F0E94681121E030E002C0220F331F37
:102D7000CA95E2F790E02823392381E0232B09F458
:102D800080E0CF9108950E9487122FEF86E791E0AF
:102D9000215080409040E1F700C000000E9487125F
:102DA0000E94AA16882321F00E94A7160E94481E9E
:102DB00008950E94C31608950895FC01680F791FB5
:102DC0008FEF91E3E617F70709F408952191822721
:102DD00028E030E087FF06C0880F8927215031099D
:102DE000C9F7F0CF880FFACFCF93DF93EB0186318D
:102DF0009C4711F50E94550C9D81992399F08A7A80
:102E000091E009F490E090937902811109C089E280
:102E10000E94A81C0E94E70C80E0DF91CF910895EA
:102E200085E3F6CF80917902811104C089E20E9486
:102E3000B01CF0CF85E3FBCF81E0EFCFCF93DF93E2
:102E4000EC01FB018581882309F4D2C09E01305733
:102E50002332310508F0B2C00E946D0D90939B02A1
:102E600080939A02FE01E150F047E232F10520F42E
:102E7000E456F84D0C94CD2680919A02816080939F
:102E80009A0293C080919B02886080939B028DC0C0
:102E900080919A028260F3CF80919A028460EFCF92
:102EA00080919A028860EBCF80919B028160EDCF88
:102EB00080919B028260E9CF80919A028061DFCF8E
:102EC00080919A028062DBCF80919A028064D7CF92
:102ED0000E94D90780919A028068D1CF80919A028E
:102EE0008C60CDCF80919B028360CFCF80919A027E
:102EF0008E7FC5CF80919B02877FC7CF80919A023A
:102F00008D7FBDCF80919A028B7FB9CF80919A023D
:102F1000877FB5CF80919B028E7FB7CF80919B0238
:102F20008D7FB3CF80919A028F7EA9CF80919A0234
:102F30008F7DA5CF80919A028F7BA1CF0E94D90768
:102F400080919A028F779BCF80919A02837F97CF4F
:102F500080919B028C7F99CF80919A0282FB992766
:102F600090F921E0922790FB82F990FB83F987CFBB
:102F700080919B02982F909591708E7F892B90FB6A
:102F800081F983CF90919A02892F8F7B96FF80647D
:102F900076CF0E94D90790919A02892F97FB87F9E3
:102FA00080586DCF81E00E94F30D80919A0290913C
:102FB0009B020E94720D0E94D90780E0DF91CF91A1
:102FC000089580E0F0CF90919A02892F8F7E94FF30
:102FD000806155CF90919A02892F8E7F90FF8160FA
:102FE0004ECF90919B02892F877F93FF88604DCFB2
:102FF00081E0E4CF282F35EB2303C001112497FF94
:1030000004C080589109892F089580589F4FFBCFA5
:103010008091800280FF0DC06091340170E0660FE6
:10302000771F6038710570F56115710569F1862F9C
:10303000089581FF07C06091340184E0689FB0016A
:103040001124EFCF6091340182FD0AC080917F028C
:103050008823A9F02091330160913401821710F088
:1030600088E0ECCF869FC001112433E0880F991FC0
:103070003A95E1F7622F70E00E94B926D2CF68E05E
:1030800070E0D5CF8FE7089581E0089580918002A8
:1030900080FF0CC06091300170E075956795759563
:1030A00067956115710549F1862F089581FF06C066
:1030B0006091300170E075956795F3CF60913001B4
:1030C00082FD0BC090917E029923A1F060912F01A7
:1030D00080913001961738F0682F70E060387105E4
:1030E00000F38FE70895899FC001112470E00E94CA
:1030F000B926F4CF61E070E0D7CF81E008958D3C30
:1031000031F40E94081881958093840208958E3CC2
:1031100019F40E940818F8CF8F3C31F40E94081867
:103120008195809383020895803D19F40E940818C8
:10313000F8CF893D29F40E944618809385020895AE
:103140008A3D21F40E9446188195F7CF8B3D31F4DA
:103150000E94461881958093860208958C3D19F44B
:103160000E944618F8CF9FE2980F983070F4815D66
:10317000990B21E030E001C0220F8A95EAF7809197
:103180008202822B8093820208958D3D31F48091DA
:10319000800281608093800208958E3D21F48091A9
:1031A00080028260F7CF8F3DB9F780918002846002
:1031B000F1CF409183028D3C59F48091840287FFC6
:1031C0000DC01092840241110BC010927F0208C002
:1031D0008E3C81F48091840218169CF3442381F084
:1031E0008091850290918602892B09F05AC0109235
:1031F0007E0208958F3C49F447FFF0CF109283027E
:10320000809184028111ECCFE0CF803D19F4141637
:10321000ACF3E4CF90918502893D29F41916F4F6B8
:1032200010928502DBCF8A3D19F497FFD7CFF8CFF4
:10323000909186028B3D29F497FFD0CF10928602A1
:10324000CDCF8C3D19F41916CCF3C8CF9FE2980F5F
:10325000983090F4815D990B21E030E0B90102C013
:10326000660F771F8A95E2F7CB01809590918202D5
:10327000892380938202B2CF8D3D31F48091800208
:103280008E7F80938002AACF8E3D21F480918002B0
:103290008D7FF7CF8F3D09F0A1CF809180028B7F8A
:1032A000F0CF08950E94E11D9C01909183028091CE
:1032B0008402982B21F030937D0220937C02909120
:1032C000850280918602982B21F030937B02209317
:1032D0007A0281E892E00E94001C089586E0E1E80D
:1032E000F2E0DF011D928A95E9F710927F021092B9
:1032F0007E02109280020895FC01828181110EC02D
:10330000838181110BC08481811108C091E0858186
:10331000811101C090E0892F8170089581E0FCCF78
:10332000A6E0B0E0E6E9F9E10C94E22686E0E1E807
:10333000F2E0DE01119601900D928A95E1F710926C
:1033400083021092840210928502109286028B8171
:103350009C81892B89F080917C0290917D020E9452
:10336000F91DAC0190917F029923C9F1809135013B
:103370008417150608F440C08D819E81892B91F039
:1033800080917A0290917B020E94F91DAC0190918C
:103390007E02992309F46AC08091310184171506D1
:1033A00008F472C0BE016F5F7F4F81E892E00E9417
:1033B000C31C811105C081E892E00E947C19811133
:1033C0000E94521986E0FE013196A1E8B2E0019018
:1033D0000D928A95E1F72696E3E00C94FE26209163
:1033E00036018AE0289F900111242417350720F622
:1033F0009F5F90937F0202C09F3FD1F71B811123F3
:1034000059F00E9408189FEF11160CF491E0899F63
:10341000802D1124809383021C81112359F00E9476
:1034200008189FEF11160CF491E0899F802D11244C
:103430008093840280918302882309F49DCF1091A8
:103440008402112309F498CF0E94FA17882351F0BF
:1034500080938302812F0E94FA17882329F080939A
:1034600084028ACF81E0F4CF81E0F9CF209132014C
:103470008AE0289F900111242417350708F092CF85
:103480009F5F90937E0202C09F3FD1F71D81112361
:1034900059F00E9446189FEF11160CF491E0899F95
:1034A000802D1124809385021E81112359F00E94E2
:1034B00046189FEF11160CF491E0899F802D11247E
:1034C0008093860280918502882309F46BCF109146
:1034D0008602112309F466CF0E94FA17882351F05F
:1034E00080938502812F0E94FA17882329F0809308
:1034F000860258CF81E0F4CF81E0F9CFB0E0A0E0C0
:10350000E4E8FAE10C94DC26E82FF0E0E45DFC4FFF
:10351000B490282F26952695269530E0F901E4539E
:10352000FC4F0491877010E0082E02C01595079596
:103530000A94E2F701701127F901E454FC4FE4907A
:10354000F12C082E02C0F594E7940A94E2F791E07A
:10355000E922FF24F901E455FC4FC491D0E002C0F8
:10356000D595C7958A95E2F7C170DD27C62ED12C77
:103570000115110549F5E114F10431F086EE0E94C0
:10358000DB04C601009771F5B6018B2D0E9457052B
:10359000C601009779F5E114F104A1F501151105B3
:1035A00031F081EE0E942405C6010097C9F5CD2BAC
:1035B00031F08CE20E946F05C114D104C9F5CDB77A
:1035C000DEB7E9E00C94F82681EE0E94DB04C60128
:1035D000009789F2EFE9FFE03197F1F700C00000B2
:1035E0000197F6CFEFE9FFE03197F1F700C0000057
:1035F0000197C8CFEFE9FFE03197F1F700C0000075
:103600000197C7CF86EE0E942405C601009731F2CC
:10361000EFE9FFE03197F1F700C000000197F6CF26
:10362000EFE9FFE03197F1F700C000000197BDCF4F
:103630008FE99FE00197F1F700C0000091E0C91AFF
:10364000D108BACF60E00E947E1A0895982F9F702B
:103650009A50963020F0805D0E94221B0895895A6E
:10366000FBCF0F931F93CF93DF93C42FD22FFC0177
:1036700085818823C9F0409389020E94E11D9093BF
:1036800088028093870280E28C0F883040F4C770F4
:1036900081E001C0880FCA95EAF70E947805DF91A2
:1036A000CF911F910F91089510918902141332C088
:1036B00080918702909188020E94F91D883C9105B3
:1036C00048F5C0E2CD0F1D17B9F080E2810F8830B8
:1036D00040F4177081E001C0880F1A95EAF70E9444
:1036E0007F05C83048F481E09D2F977001C0880F96
:1036F0009A95EAF70E947805802F0E946F05C830DE
:1037000070F6D77081E001C0880FDA95EAF70E9461
:103710007F05C5CF80E28C0F883008F6C77081E046
:1037200001C0880FCA95EAF7F2CF0F93DB018851E9
:103730009C4787309105A0F5FC01E254F84D0C94AC
:10374000CD2606E221EE41EE6AE17CE7CD010E9442
:10375000311B80E00F91089507E225EE45EE6BE105
:103760007CE7F4CF06E221EE40EE68E17CE7EECFA5
:1037700007E225EE44EE69E17CE7E8CF06E221EEC0
:1037800042EE6CE17CE7E2CF07E225EE46EE6DE12A
:103790007CE7DCCF08E221E045EE6EE17CE7D6CFA6
:1037A00015968C91882319F010928902D3CF81E06D
:1037B000D1CF9093900280938F0208950E940D13B1
:1037C000811103C080918A020895E0918F02F091E7
:1037D0009002309729F00190F081E02D099508952D
:1037E00080E008950E94DE1B0895E0918F02F09121
:1037F0009002309721F00280F381E02D0995089521
:10380000E0918F02F0919002309739F022E0DC01D4
:103810002C930680F781E02D09950895A3E0B0E090
:10382000E4E1FCE10C94E32620918D0230918E02BC
:1038300028173907A1F090938E0280938D02E091B2
:103840008F02F0919002309751F023E029839B83FF
:103850008A830084F185E02DCE0101960995239697
:10386000E2E00C94FF26A3E0B0E0E9E3FCE10C9475
:10387000E32620918B0230918C0228173907A1F0A2
:1038800090938C0280938B02E0918F02F0919002D2
:10389000309751F024E029839B838A830084F1854B
:1038A000E02DCE01019609952396E2E00C94FF26C7
:1038B00040910001509101019A012E5F3F4F485FF6
:1038C0005F4F80E02417350709F40895F9019191BD
:1038D0009F019923B9F38F5FF5CF882371F0209171
:1038E000000130910101F9013296285F3F4F91911B
:1038F000981729F0E217F307D1F780E0089581E0E7
:1039000008959C01FC0132969FEF80E0419146179B
:1039100051F09F3F19F4411101C0982F8F5F8630FD
:10392000A9F79F3F09F40895290F311D97FD3A9596
:10393000F90162830895FC013296089621912613BD
:1039400003C0DF0111971C92E817F907B9F7089532
:10395000682F80910001909101010E94811C0895BF
:10396000682F80910001909101010E949B1C089595
:10397000E0910001F0910101329686E0DF011D9295
:103980008A95E9F70895DC01FB0111969C91119746
:103990008181981322C012968C911297882319F076
:1039A000928189131AC013968C911397882319F06A
:1039B0009381891312C015968C911597882319F05D
:1039C000958189130AC014969C91992321F081E076
:1039D0002481291303C080E001C081E08170089533
:1039E00008950E94F01C089581110EC081E080931B
:1039F0003A016091370170913801809139019091BD
:103A00003A010E94F11C089582E0F1CF83E0809397
:103A10003A0160913701709138018091390190919C
:103A20003A010E94F11C08950E94F41C089581E05F
:103A300080933A016091370170913801809139018A
:103A400090913A010E94F11C08950E94171D08955B
:103A500091E0811101C090E09093390160913701AC
:103A6000709138018091390190913A010E94F11CC6
:103A7000089580913901089580933801609137014C
:103A8000709138018091390190913A010E94F11CA6
:103A9000089580913801089580933701609137012E
:103AA000709138018091390190913A010E94F11C86
:103AB0000895809137010895089508950E945D1D2D
:103AC0000895089508950E945C1D0895CF930E9463
:103AD000611D0E9487120E94621DC0E08C2F0E940F
:103AE0006811811105C0CF5FC830C1F7CF9108952B
:103AF00081E0FCCF85B7806885BF85B7806885BFCA
:103B000008951F921FB61F9211248F939F93AF9316
:103B1000BF9380919102811113C08091B502909161
:103B2000B602A091B702B091B8024196A11DB11D95
:103B30008093B5029093B602A093B702B093B802F7
:103B4000BF91AF919F918F911F901FBE1F901895AD
:103B50008091BD02843031F10E945604109291028E
:103B600088E190E020E40FB6F894A8958093600077
:103B70000FBE2093600083B7817F846083BF83B7CB
:103B8000816083BF7894889583B78E7F83BF0FB69B
:103B9000F894A895809160008861809360001092ED
:103BA00060000FBE08950E94D9070E945B0408952B
:103BB00082E084BD93E095BD9AEF97BD80936E003F
:103BC00008952FB7F8948091B5029091B602A09114
:103BD000B702B091B8022FBF08952FB7F894609143
:103BE000B5027091B6028091B7029091B8022FBFD2
:103BF00008959C014FB7F8948091B5029091B60258
:103C0000A091B702B091B8024FBF821B930B0895E9
:103C1000CF92DF92EF92FF922FB7F894C090B50247
:103C2000D090B602E090B702F090B8022FBFA70183
:103C30009601261B370B480B590BCA01B901FF909F
:103C4000EF90DF90CF90089578941F921FB61F9247
:103C500011248F939F93AF93BF938091B50290915E
:103C6000B602A091B702B091B8020196A11DB11D94
:103C70008093B5029093B602A093B702B093B802B6
:103C8000BF91AF919F918F911F901FBE1F9018956C
:103C900087E797E7909301088093000888E19AE00E
:103CA0000FB6F894A895809360000FBE90936000C3
:103CB000FFCF88E19AE00FB6F894A8958093600052
:103CC0000FBE90936000FFCF8EE14A9B02C08150EF
:103CD000E1F74A9BFECF08955A9880E28A95F1F762
:103CE0005A9A0895FC013BE03A95F1F798E020E0FC
:103CF00080E031E040E14A95F1F7880F4A9B02C02D
:103D00008160232742E04A95F1F7000040E14A959F
:103D1000F1F7915079F790E19A95F1F799B132E086
:103D20003A95F1F7000040E14A95F1F792FB9927A7
:103D300090F992272081920F90830895A1E0B0E03E
:103D4000E4EAFEE10C94DF2619828C017C01E60E88
:103D5000F11C0E151F0541F481E09981911180E05D
:103D60002196E6E00C94FB260E94641ECE0101968B
:103D70000E94721EF80181938F01EBCF529A5A9ADA
:103D8000089552985A9AEA9AE9E6F0E080818F7C89
:103D9000808308956150770B91E001C0990F6A9577
:103DA000EAF720E031E0911108C0222391F05A9AFD
:103DB00080E28A95F1F75A980895492F482339F0FF
:103DC0005A9A232740E24A95F1F79695ECCF5A98F4
:103DD000F9CF5A98EDCFFF920F931F93CF93DF93B4
:103DE000EC018C01060F111DC017D10729F4CDB7C6
:103DF000DEB7E5E00C94FC26F9900E946C1E68E0AA
:103E00008F2D0E94CA1EF0CF1F920F920FB60F92F5
:103E100011240F931F932F933F934F935F936F93AF
:103E20007F938F939F93AF93BF93EF93FF93CF9322
:103E3000DF930F92CDB7DEB719820E94641ECE01C8
:103E400001960E94721E082F069506950695282F4A
:103E500022952570902F9570290F922F937026959B
:103E60002695920F982797708981982B09F05CC04E
:103E7000043008F059C080E18A95F1F75A9A529AB5
:103E800082E08A95F1F700C05A9888E0089F800187
:103E90001124D801A95EBE4F1696ED91FC9117979B
:103EA0003097A9F06091CB017091CC0114962D91BF
:103EB0003C911597260F371F11968D919C91129763
:103EC000680F791F13964C9113978C910995F801FF
:103ED000E95EFE4F6381662351F02091CB01309162
:103EE000CC0184819581820F931F0E94EB1E0E945A
:103EF0006C1E80E18A95F1F75A9852985A9A80E19F
:103F00008A95F1F7F801E95EFE4F6081662351F072
:103F10002091CB013091CC0181819281820F931F3E
:103F20000E949E1E0E94641E0F90DF91CF91FF9110
:103F3000EF91BF91AF919F918F917F916F915F9121
:103F40004F913F912F911F910F910F900FBE0F90A6
:103F50001F9018950F931F93CF93DF93EC01049755
:103F60000CF04CC0F894529A5A9885E08A95F1F773
:103F700000009C2F969595708C2F8570980F892F37
:103F800083709695969523E0CC0FDD1F2A95E1F777
:103F9000980F8E01092B0E946C1E00C068E0802FD4
:103FA0000E94CA1E80E18A95F1F752985A9A4A9B5C
:103FB0001EC087E090E04A991CC0FE01E95EFE4FFA
:103FC00063816623F9F02091CB013091CC0184818B
:103FD0009581820F931F0E949E1E811113C0529AD9
:103FE0005A9A7894DF91CF911F910F91089500C054
:103FF000DECF019729F4529A5A9A789480E0F2CF52
:1040000000C0D9CF0E94641E80E28A95F1F75A98C9
:10401000529A80E18A95F1F7C95EDE4F6881662386
:1040200051F02091CB013091CC0189819A81820F8E
:10403000931F0E94EB1E0E946C1E789481E0D2CFE9
:1040400008959B01BA019091BD029430E9F48F70FC
:104050008093E9009FEF8091E800915085FD06C0B4
:1040600085ED8A95F1F700009111F5CF8091E80078
:1040700085FF0AC050E040E0C9010E9420228091E3
:10408000E8008E778093E800089543E050E0BC019B
:1040900082E00E942120089546E050E0BC0182E0C9
:1040A0000E9421200895CF93DF93EC010E94391DD7
:1040B00048E050E0BE0181E00E94212088E0FE013E
:1040C000A2E9B2E001900D928A95E1F7DF91CF91DC
:1040D00008958091BC02811109C00E94B0230E9402
:1040E0000D248091E20084608093E2000895109294
:1040F000BC0208950E94171D81E00E94281D0895AA
:104100006091B90281E0611101C080E00E94061D4A
:1041100008959091BD0281E0943009F080E06091B3
:10412000B9020E94141D089542E061EC81E00E94F2
:104130002C2342E261EC82E00E942C239091BD028C
:1041400081E0943009F080E06091B9020E94F41C93
:1041500008958091BF02833009F461C030F481304A
:10416000D1F1823009F49EC008958A3009F48AC0E2
:104170008B3009F46FC0893009F050C08091BE02C5
:10418000813209F04BC08091C2029091C302029724
:1041900008F044C08091E800877F8093E800809118
:1041A000E80082FF37C09091F3008091F2000297FF
:1041B00031F48091F100813011F0863021F480914A
:1041C000F1000E943C1D8091E8008B778093E8000D
:1041D0000E94602323C08091BE02813AF9F480914D
:1041E000E800877F8093E8008091C2029091C3022B
:1041F000892B61F468E082E992E070E00E946F220E
:104200008091E8008B778093E800089560E090E06B
:1042100080E0F3CF8091BD028111C1CF08958091DC
:10422000BE02813AD9F78091C2029091C302892BD4
:10423000A9F78091E800877F8093E8008091E800EB
:1042400080FFFCCF0E94391D8093F1008091E8002F
:104250008E77BCCF8091BE02813201F78091C2027D
:104260009091C302892BD1F68091E800877F8093DB
:10427000E8000E9460238091C0020E94281D0E94D5
:10428000D90708958091BE02813241F68091E800FD
:10429000877F8093E8000E9460238091C1020E9482
:1042A0004C1D08958091BE02813A09F0B7CF8091EC
:1042B000E800877F8093E8008091E80080FFFCCFD2
:1042C0000E94591DC1CF84B7877F84BF0FB6F89471
:1042D000A8958091600088618093600010926000D2
:1042E0000FBE80E890E00FB6F89480936100909341
:1042F00061000FBE0E94251D08950E94B0230E94F8
:104300000D24E2EEF0E080818460808378940E9446
:104310008C2608958BE391E00E94D91B089580912B
:10432000BD02853031F48091BD02853019F00E94C4
:10433000D31D08950E94A81D0E94661D882399F32D
:104340008091BB02882379F30E940A220E94D90738
:10435000EACF08959A014091C4025091C5020E948B
:10436000B2210895492F55274330510519F168F4BA
:104370004130510509F444C04230510509F445C0AB
:1043800090E080E050E040E025C04132510549F125
:1043900042325105A9F784E490E04EEC54E06115F7
:1043A0007105C1F08BE790E043E554E061307105A1
:1043B00089F0E6CF99278130910581F0009729F0A7
:1043C0000297F1F6ECEDF3E002C0E2E0F4E0849154
:1043D00090E0AF01F901518340830895E8EFF3E0E5
:1043E000F6CF89E090E048E154E06115710591F362
:1043F00089E090E041E354E06130710559F3C0CFAA
:1044000082E190E041E454E0E5CF8BE390E046E0C8
:1044100054E0E0CF80E189BD82E189BD09B400FEAE
:10442000FDCF8091D8008F7D8093D8008091E000EF
:1044300082608093E0008091E00081FDFCCF0895D0
:10444000AF92BF92CF92DF92FF920F931F93CF93C1
:10445000DF936C01EB018A010E947F23F82E81110A
:1044600023C00115110539F0F80180819181C81B25
:10447000D90BC80ED91EB12CA12C2097A9F0809180
:10448000E80085FD22C08091E8008E778093E800E7
:1044900001151105A1F0F80180819181A80EB91EC6
:1044A000B182A08285E0F82E8F2DDF91CF911F91F0
:1044B0000F91FF90DF90CF90BF90AF9008950E9432
:1044C0007F238823D1F2F82EEFCFF60181916F017F
:1044D0008093F1002197FFEFAF1ABF0ACECFFC0106
:1044E0008091C4029091C50286179707A0F06115CC
:1044F000710529F49091E8009E779093E80090E090
:104500006115710551F4911108C08091E80082FF96
:1045100034C080E00895BC01F2CF8091BD028823B1
:10452000C1F18530C1F18091E80083FD30C08091F8
:10453000E80082FDEACF8091E80080FFE1CF809122
:10454000F3002091F200382F6115710519F0283021
:10455000310558F091E02830310509F090E02091C4
:10456000E8002E772093E800CBCF81918093F10073
:10457000615071092F5F3F4FE7CF8091BD028823C3
:1045800041F0853041F08091E80083FFBECF81E0AB
:10459000089582E0089583E00895FC018091C402AB
:1045A0009091C50286179707A0F06115710529F44F
:1045B0008091E8008E778093E80090E061157105A6
:1045C00051F4911108C08091E80082FF35C080E06D
:1045D0000895BC01F2CF8091BD028823C9F18530D6
:1045E000C9F18091E80083FD31C08091E80082FD2F
:1045F000EACF8091E80080FFE1CF8091F300209125
:10460000F200382F6115710519F02830310558F086
:1046100091E02830310509F090E08091E8008E7734
:104620008093E800CBCF84918093F1003196615064
:1046300071092F5F3F4FE6CF8091BD02882341F083
:10464000853041F08091E80083FFBDCF81E008957F
:1046500082E0089583E00895982F973028F08F70B6
:104660008093E90081E008959093E900242F762F4C
:1046700050E0981731F07091EC002091ED005091CE
:10468000F00021FD02C09F5FE8CF3091EB003E7F3C
:104690003093EB003091ED003D7F3093ED00309191
:1046A000EB0031603093EB007093EC002093ED0051
:1046B0005093F0002091EE0027FDE5CF80E00895B3
:1046C0008091BE0287FF13C08091E80082FF06C080
:1046D0008091E8008B778093E80004C08091BD0250
:1046E0008111F2CF08958091BD028823D9F3809182
:1046F000E80080FFF8CF8091E8008E77ECCF209122
:10470000E4003091E50095E6A9012091EC00822FAC
:10471000817020FF06C08091E80080FF06C080E025
:1047200008952091E80022FD1AC08091BD028823DF
:1047300089F0853089F08091EB0085FD0FC02091D4
:10474000E4003091E50042175307F9F29150E1F689
:1047500084E0089582E0089583E0089581E008955B
:104760000E941F240E942724E0EEF0E080818160F7
:104770008083E8EDF0E080818F77808319BCA7ED1E
:10478000B0E08C918E7F8C9380818F7E808310929D
:10479000BC0208950F931F93CF93DF930E941F24B1
:1047A0000E942724C8EDD0E088818F778883888194
:1047B0008068888388818F7D888319BC1092BD02B0
:1047C0001092B9021092BB021092BA0200EE10E0F1
:1047D000F80180818B7F808388818160888342E0BB
:1047E00060E080E00E942C23E1EEF0E080818E7F8B
:1047F0008083E2EEF0E08081816080838081886048
:104800008083F80180818E7F8083888180618883A6
:10481000DF91CF911F910F910895E8EDF0E0808135
:104820008F7E8083E7EDF0E080818160808384E08B
:1048300082BF81E08093BC020E94CA230895E8ED04
:10484000F0E080818E7F80831092E20008951092C4
:10485000DA001092E10008951F920F920FB60F92A6
:1048600011242F933F934F935F936F937F938F9375
:104870009F93AF93BF93EF93FF938091E10082FFEB
:104880000BC08091E20082FF07C08091E1008B7F26
:104890008093E1000E948B268091DA0080FF19C08E
:1048A0008091D80080FF15C08091DA008E7F8093C0
:1048B000DA008091D90080FF96C080E189BD82E155
:1048C00089BD09B400FEFDCF81E08093BD020E9446
:1048D00069208091E10080FF19C08091E20080FF93
:1048E00015C08091E2008E7F8093E2008091E2000B
:1048F00080618093E2008091D80080628093D8002C
:1049000019BC85E08093BD020E9480208091E10067
:1049100084FF2BC08091E20084FF27C080E189BD25
:1049200082E189BD89B5982F917080FFFBCF80917E
:10493000D8008F7D8093D8008091E1008F7E809396
:10494000E1008091E2008F7E8093E2008091E2009E
:1049500081608093E2008091B902882309F449C004
:1049600084E08093BD020E9489208091E10083FF52
:1049700029C08091E20083FF25C08091E100877FFC
:104980008093E10082E08093BD021092B902809191
:10499000E1008E7F8093E1008091E2008E7F809322
:1049A000E2008091E20080618093E20042E060E0FA
:1049B00080E00E942C238091F00088608093F000BA
:1049C0000E947A20FF91EF91BF91AF919F918F91BB
:1049D0007F916F915F914F913F912F910F900FBEFB
:1049E0000F901F90189519BC1092BD020E9477205D
:1049F00070CF8091E30087FD93E09093BD02B3CF29
:104A00001F920F920FB60F9211242F933F934F9343
:104A10005F936F937F938F939F93AF93BF93CF9346
:104A2000DF93EF93FF93D091E900DF708091EC006A
:104A3000C82FC17080FDC0E81092E9008091F0009D
:104A4000877F8093F00078940E9444251092E900BB
:104A50008091F00088608093F000CD2BCF70C093E0
:104A6000E900FF91EF91DF91CF91BF91AF919F91BD
:104A70008F917F916F915F914F913F912F910F9007
:104A80000FBE0F901F901895AAE2B0E0EAE4F5E29D
:104A90000C94E2268EEB92E02091F100FC01219330
:104AA000CF01F2E0863C9F07B9F70E94A9208091D0
:104AB000E80083FF1EC18091BE029091BF029A3030
:104AC00008F017C1E92FF0E0EB53F84D0C94CD2618
:104AD000803899F0823809F00CC18091C2028F7041
:104AE000873008F006C18093E9008091EB0085FBD8
:104AF000882780F91092E90006C08091BA0290914F
:104B0000BB02911182609091E800977F9093E8003A
:104B10008093F1001092F1008091E8008E77E5C05B
:104B2000882309F4D3C0823009F0E3C08091C00229
:104B30008111D6C08091C2028F702FEF280F2630CE
:104B400008F0D7C08093E9002091EB0020FFC8C097
:104B5000933031F48091EB0080628093EB00C0C011
:104B60009091EB0090619093EB0021E030E001C068
:104B7000220F8A95EAF72093EA001092EA008091CA
:104B8000EB008860EACF8111B4C01091C0021F779A
:104B90008091E3008078812B8093E3008091E8008E
:104BA000877F8093E8000E9460238091E80080FF67
:104BB000FCCF8091E30080688093E30082E01111D4
:104BC00083E08093BD0295C08058823008F091C088
:104BD0008091C0029091C1028C3D23E09207A1F523
:104BE00083E08A838AE289834FB7F894DE011396C3
:104BF00020E03EE051E2E32FF0E050935700E491D3
:104C000020FF03C0E295EF703F5FEF708E2F90E0C2
:104C1000EA30C0F0C7968D939D932F5F243159F7EA
:104C20004FBF8091E800877F8093E8006AE270E0E0
:104C3000CE0101960E946F228091E8008B778093CD
:104C4000E80057C0C096E7CF6091C2027091C302DE
:104C5000AE014F5F5F4F0E94AA21BC01892B09F46E
:104C600048C09091E800977F9093E80089819A81ED
:104C70000E94CD22E1CF8038E1F58091E800877F66
:104C80008093E8008091B9028093F10045CF8111B3
:104C900030C09091C002923060F58091E800877F2B
:104CA0008093E8009093B9020E9460238091B9023A
:104CB000882311F084E005C08091E30087FDFACFDE
:104CC00081E08093BD020E94942013C08091C002B5
:104CD000813079F481E0933009F080E08093BB0269
:104CE0001092E9008091E800877F8093E8000E949D
:104CF00060238091E80083FF0AC08091E800877FED
:104D00008093E8008091EB0080628093EB00AA968C
:104D1000E3E00C94FE260895CF938091BD02882392
:104D2000A1F0C091E900CF709091EC00892F8170C3
:104D300090FD80E8C82B1092E9008091E80083FD87
:104D40000E944425CF70C093E900CF9108950E943E
:104D5000B0231092BD020895E8EDF0E080818061FB
:104D600080838AE18A95F1F700C08091D900817033
:104D7000089597FB072E16F4009407D077FD09D00D
:104D80000E940A2707FC05D03EF4909581959F4F1D
:104D90000895709561957F4F0895EE0FFF1F059060
:104DA000F491E02D09942F923F924F925F926F926F
:104DB0007F928F929F92AF92BF92CF92DF92EF92AB
:104DC000FF920F931F93CF93DF93CDB7DEB7CA1B2C
:104DD000DB0B0FB6F894DEBF0FBECDBF09942A8857
:104DE000398848885F846E847D848C849B84AA84FF
:104DF000B984C884DF80EE80FD800C811B81AA818C
:104E0000B981CE0FD11D0FB6F894DEBF0FBECDBF56
:104E1000ED010895AA1BBB1B51E107C0AA1FBB1FD0
:104E2000A617B70710F0A61BB70B881F991F5A9536
:104E3000A9F780959095BC01CD010895FB01DC0197
:104E400004C08D910190801921F441505040C8F761
:104E5000881B990B0895FB01DC0102C001900D92A3
:104E600041505040D8F70895F999FECF92BD81BDC9
:104E7000F89A992780B50895A8E1B0E042E050E0A3
:104E80000C947827DC01A40FB51F4150504048F026
:104E9000CB01840F951F2E910E9453274150504003
:104EA000D0F70895262FF999FECF92BD81BDF89ACB
:104EB000019700B4021639F01FBA20BD0FB6F8945E
:104EC000FA9AF99A0FBE08950396272F0E94532746
:104ED0000E945227252F0E945327242F0C945327DA
:104EE0000196272F0E9453270C945227DC01CB01F7
:104EF000FC01F999FECF06C0F2BDE1BDF89A3196EA
:104F000000B40D9241505040B8F70895F894FFCF87
:104F1000C705C705170617067C069806F605F605A9
:104F20009D060E071D071D0740154D1552155615F8
:104F300058155A155C155E157617EA177E1748172F
:104F40004C1782175017861792175C17E3176017D4
:104F5000961764179A17C21768179E17C9176E1706
:104F6000A417AC1754178A1758178E177217A8175B
:104F7000B817D217E11742177A17F117B21BB81BEF
:104F8000A11BAC1BBE1BC41BCA1B68259025792620
:0E4F900090257926C325E42579263B26472661
:104F9E003A02C6F7F6F5F4313332369391909466B1
:104FAE00973435FFFFFF01000000010000000000F4
:104FBE0000000401000000040500000000000028AD
:104FCE000850011E0A140100000100491D53202043
:104FDE00204C204520F4F5F6F7C693363233319740
:104FEE00669490913534FFFFFFE200E900EA00B5C8
:104FFE0000B600B700CD008301CC008A0192019467
:10500E00012102230224022502260227022A02B3CC
:10501E0000B4006F0070009F01CB019F02A00281BF
:10502E008283E200E900EA00B500B600B700CD00C9
:10503E008301CC008A0192019401210223022402F1
:10504E002502260227022A02B300B4006F00700068
:0E505E009F01CB019F02A002818283600200AD
:00000001FF
